:0600000002003002043E84
:03000B0002043FAD
:03001300020440A4
:0300230002044193
:1000300075815F9101713D7F32716E50FADFFAC0B8
:10004000E07F32716E40FADFFAD0E030070EC0E098
:10005000713D74019122C2A09135D0E0B48F0A7431
:10006000019122C2A0913580CCB48E5130051E740E
:10007000019122C2A091359003C8715174C09122A0
:10008000C2A091359003D87151D20780AAE52054BF
:1000900007B4030280D94195E530C2E7B40A028073
:1000A0007CB40B02214BB40C0221A7B40D02410712
:1000B00085354185364285374351B9013730E71AD6
:1000C00030010C200209200006D200F5308002D257
:1000D00005C2E79003B9715F0137200020300302A9
:1000E00080EDD201783171F6C0E02531F531DD04C3
:1000F000D203D205D0E09003B9715F01373004021A
:1001000080CDD202783371F6C0E02533F533DC04BC
:10011000D204D205D0E09003B9715F013779357808
:1001200039313385354185364285374385384451E9
:10013000B90137C37E04313BDEFC22E786F035F09F
:10014000D4B40A00B3540FF70908227938783C3147
:100150006D4008793578393163D20979357839318C
:0A0160008280C07F04E7C6F708099B
:10016A00DFF9227A04E7C396B400061819DAF6D33F
:10017A002230E702C322D322C3318C318C318C3135
:10018A008C22C0D0E786F095F020E705D0D0C38056
:10019A0008E7240AD0D095F0D3F70908227400B5ED
:1001AA003107B5320451B90137B53305B534028088
:1001BA00F4C03AAF39784131D0D0E0FF31D0AF3412
:1001CA0031D051B90137882F75350075360075372A
:1001DA0000753800BF0002800E7831793951A37951
:1001EA003578393133DFF87935A82F3133A82FA67E
:1001FA003508A63608A63708A6381818227400B596
:10020A003305B53402016FB53105B5320280965116
:10021A005C7F047835B6000D08DFFA793D78413104
:10022A006351B90137793D784C3163754B0E7F0BB9
:10023A00784A882F5189515CA82FA63D18DFF3858B
:10024A0041B0E53DB40500B3E5413400F54151F351
:10025A000137755001753D00753E00753F007540C8
:10026A00007938783C316D400122793D785031333C
:10027A007935783931827938783C316D40EC227899
:03028A00357400C8
:10028D00C608C608C608C6227831793551A3783319
:10029D00793951A30198C0E0E6540FF7E654F0C444
:1002AD0009F708E609F7097700D0E02274C091221A
:1002BD00C2A0913574009003E8C0E0715FD0E004F6
:1002CD0050F79003B9300904740B715F78467F05C0
:1002DD00C208E62008026004715FD20818DFF3E55A
:1002ED0041715FD2072274C09122C2A09135740072
:1002FD009003F3C0E0715FD0E00450F79003B9783C
:10030D004F7F03C208E62008026004715FD208180F
:10031D00DFF3E54C715FE54B715F7F0A7841E67065
:10032D0004081F80F9784AE6715F18DFFAD20722B8
:10033D007D047C04752000752100793078307600BD
:10034D0008D9FB227F107400C0E0715FD0E004DF9C
:10035D00F72293B40003D380079122D2A09135C325
:10036D002274EF7E04F5A0F522E590540FB40F082A
:10037D00E52223DEF0C3801B9003A124F993C0E096
:09038D00E52254F0C424F9932385
:1003960023D02245229003A993D32203FFFFFF0215
:1003A600FF01000704018F080502000906038E8D70
:1003B6008C8B8A303132333435363738392B2D2A07
:1003C6002F2E202053796E746178204552524F5259
:1003D600202020204F5554206F662052414E47451D
:1003E600202020202020202020203D20003D20000D
:1003F600C0E0E6C408D618F6D0E02274389122C2CE
:10040600A0913574019122C2A09135740F9122C238
:10041600A0913574069122C2A09135227589017585
:100426008CF8758A3BD28C308DFDC28CC28D22F53C
:0C04360080C2A2D2A1C2A1223232323216
:00000001FF
